{"abi":[{"type":"constructor","inputs":[],"stateMutability":"nonpayable"},{"type":"fallback","stateMutability":"payable"},{"type":"receive","stateMutability":"payable"},{"type":"function","name":"depositERC20","inputs":[{"name":"asset","type":"address","internalType":"address"},{"name":"amount","type":"uint256","internalType":"uint256"}],"outputs":[],"stateMutability":"nonpayable"},{"type":"function","name":"depositEth","inputs":[],"outputs":[],"stateMutability":"payable"},{"type":"function","name":"withdrawERC20","inputs":[{"name":"asset","type":"address","internalType":"address"},{"name":"amount","type":"uint256","internalType":"uint256"},{"name":"recipient","type":"address","internalType":"address"}],"outputs":[],"stateMutability":"nonpayable"},{"type":"function","name":"withdrawEth","inputs":[{"name":"recipient","type":"address","internalType":"address"}],"outputs":[{"name":"","type":"uint256","internalType":"uint256"}],"stateMutability":"nonpayable"}],"bytecode":{"object":"0x6080604052348015600e575f5ffd5b50610a288061001c5f395ff3fe608060405260043610610042575f3560e01c806325e1606314610045578063439370b1146100815780635fc3ea0b1461008b57806397feb926146100b357610043565b5b005b348015610050575f5ffd5b5061006b60048036038101906100669190610689565b6100db565b60405161007891906106cc565b60405180910390f35b6100896102d0565b005b348015610096575f5ffd5b506100b160048036038101906100ac919061070f565b610480565b005b3480156100be575f5ffd5b506100d960048036038101906100d4919061075f565b610517565b005b5f5f7387870bca3f3fd6335c3f4ce8392d69350b4fa4e273ffffffffffffffffffffffffffffffffffffffff166369328dec73c02aaa39b223fe8d0a0e5c4f27ead9083c756cc27fffffffffffffffffffffffffffffffffffffffffffffffffffffffffffffffff306040518463ffffffff1660e01b8152600401610162939291906107ac565b6020604051808303815f875af115801561017e573d5f5f3e3d5ffd5b505050506040513d601f19601f820116820180604052508101906101a291906107f5565b905073c02aaa39b223fe8d0a0e5c4f27ead9083c756cc273ffffffffffffffffffffffffffffffffffffffff16632e1a7d4d826040518263ffffffff1660e01b81526004016101f191906106cc565b5f604051808303815f87803b158015610208575f5ffd5b505af115801561021a573d5f5f3e3d5ffd5b505050505f8373ffffffffffffffffffffffffffffffffffffffff16826040516102439061084d565b5f6040518083038185875af1925050503d805f811461027d576040519150601f19603f3d011682016040523d82523d5f602084013e610282565b606091505b50509050806102c6576040517f08c379a00000000000000000000000000000000000000000000000000000000081526004016102bd906108bb565b60405180910390fd5b8192505050919050565b5f47905073c02aaa39b223fe8d0a0e5c4f27ead9083c756cc273ffffffffffffffffffffffffffffffffffffffff1663d0e30db0826040518263ffffffff1660e01b81526004015f604051808303818588803b15801561032e575f5ffd5b505af1158015610340573d5f5f3e3d5ffd5b505050505073c02aaa39b223fe8d0a0e5c4f27ead9083c756cc273ffffffffffffffffffffffffffffffffffffffff1663095ea7b37387870bca3f3fd6335c3f4ce8392d69350b4fa4e2836040518363ffffffff1660e01b81526004016103a89291906108d9565b6020604051808303815f875af11580156103c4573d5f5f3e3d5ffd5b505050506040513d601f19601f820116820180604052508101906103e89190610935565b507387870bca3f3fd6335c3f4ce8392d69350b4fa4e273ffffffffffffffffffffffffffffffffffffffff1663617ba03773c02aaa39b223fe8d0a0e5c4f27ead9083c756cc283305f6040518563ffffffff1660e01b815260040161045094939291906109af565b5f604051808303815f87803b158015610467575f5ffd5b505af1158015610479573d5f5f3e3d5ffd5b5050505050565b7387870bca3f3fd6335c3f4ce8392d69350b4fa4e273ffffffffffffffffffffffffffffffffffffffff166369328dec8484846040518463ffffffff1660e01b81526004016104d1939291906107ac565b6020604051808303815f875af11580156104ed573d5f5f3e3d5ffd5b505050506040513d601f19601f8201168201806040525081019061051191906107f5565b50505050565b8173ffffffffffffffffffffffffffffffffffffffff1663095ea7b37387870bca3f3fd6335c3f4ce8392d69350b4fa4e2836040518363ffffffff1660e01b81526004016105669291906108d9565b6020604051808303815f875af1158015610582573d5f5f3e3d5ffd5b505050506040513d601f19601f820116820180604052508101906105a69190610935565b507387870bca3f3fd6335c3f4ce8392d69350b4fa4e273ffffffffffffffffffffffffffffffffffffffff1663617ba0378383305f6040518563ffffffff1660e01b81526004016105fa94939291906109af565b5f604051808303815f87803b158015610611575f5ffd5b505af1158015610623573d5f5f3e3d5ffd5b505050505050565b5f5ffd5b5f73ffffffffffffffffffffffffffffffffffffffff82169050919050565b5f6106588261062f565b9050919050565b6106688161064e565b8114610672575f5ffd5b50565b5f813590506106838161065f565b92915050565b5f6020828403121561069e5761069d61062b565b5b5f6106ab84828501610675565b91505092915050565b5f819050919050565b6106c6816106b4565b82525050565b5f6020820190506106df5f8301846106bd565b92915050565b6106ee816106b4565b81146106f8575f5ffd5b50565b5f81359050610709816106e5565b92915050565b5f5f5f606084860312156107265761072561062b565b5b5f61073386828701610675565b9350506020610744868287016106fb565b925050604061075586828701610675565b9150509250925092565b5f5f604083850312156107755761077461062b565b5b5f61078285828601610675565b9250506020610793858286016106fb565b9150509250929050565b6107a68161064e565b82525050565b5f6060820190506107bf5f83018661079d565b6107cc60208301856106bd565b6107d9604083018461079d565b949350505050565b5f815190506107ef816106e5565b92915050565b5f6020828403121561080a5761080961062b565b5b5f610817848285016107e1565b91505092915050565b5f81905092915050565b50565b5f6108385f83610820565b91506108438261082a565b5f82019050919050565b5f6108578261082d565b9150819050919050565b5f82825260208201905092915050565b7f6574682073656e64206661696c656400000000000000000000000000000000005f82015250565b5f6108a5600f83610861565b91506108b082610871565b602082019050919050565b5f6020820190508181035f8301526108d281610899565b9050919050565b5f6040820190506108ec5f83018561079d565b6108f960208301846106bd565b9392505050565b5f8115159050919050565b61091481610900565b811461091e575f5ffd5b50565b5f8151905061092f8161090b565b92915050565b5f6020828403121561094a5761094961062b565b5b5f61095784828501610921565b91505092915050565b5f819050919050565b5f61ffff82169050919050565b5f819050919050565b5f61099961099461098f84610960565b610976565b610969565b9050919050565b6109a98161097f565b82525050565b5f6080820190506109c25f83018761079d565b6109cf60208301866106bd565b6109dc604083018561079d565b6109e960608301846109a0565b9594505050505056fea2646970667358221220915acb77cd12b5f032bf2fef57825580bd87be360da8292c210f888f2dbd158864736f6c63430008210033","linkReferences":{}},"methodIdentifiers":{"depositERC20(address,uint256)":"97feb926","depositEth()":"439370b1","withdrawERC20(address,uint256,address)":"5fc3ea0b","withdrawEth(address)":"25e16063"},"id":21}