{"abi":[{"type":"constructor","inputs":[],"stateMutability":"nonpayable"},{"type":"fallback","stateMutability":"payable"},{"type":"receive","stateMutability":"payable"},{"type":"function","name":"owner","inputs":[],"outputs":[{"name":"","type":"address","internalType":"address"}],"stateMutability":"view"},{"type":"function","name":"transferEth","inputs":[{"name":"recipient","type":"address","internalType":"address payable"},{"name":"amount","type":"uint256","internalType":"uint256"}],"outputs":[],"stateMutability":"nonpayable"},{"type":"error","name":"FailedTransfer","inputs":[]},{"type":"error","name":"NotAuthorized","inputs":[]}],"bytecode":{"object":"0x6080604052348015600e575f5ffd5b50335f5f6101000a81548173ffffffffffffffffffffffffffffffffffffffff021916908373ffffffffffffffffffffffffffffffffffffffff1602179055506104088061005b5f395ff3fe60806040526004361061002c575f3560e01c80638da5cb5b1461002f578063e9bb84c2146100595761002d565b5b005b34801561003a575f5ffd5b50610043610081565b6040516100509190610250565b60405180910390f35b348015610064575f5ffd5b5061007f600480360381019061007a91906102db565b6100a5565b005b5f5f9054906101000a900473ffffffffffffffffffffffffffffffffffffffff1681565b5f5f9054906101000a900473ffffffffffffffffffffffffffffffffffffffff1673ffffffffffffffffffffffffffffffffffffffff163373ffffffffffffffffffffffffffffffffffffffff161461012a576040517fea8e4eb500000000000000000000000000000000000000000000000000000000815260040160405180910390fd5b80471015610164576040517fbfa871c500000000000000000000000000000000000000000000000000000000815260040160405180910390fd5b5f8273ffffffffffffffffffffffffffffffffffffffff168260405161018990610346565b5f6040518083038185875af1925050503d805f81146101c3576040519150601f19603f3d011682016040523d82523d5f602084013e6101c8565b606091505b505090508061020c576040517f08c379a0000000000000000000000000000000000000000000000000000000008152600401610203906103b4565b60405180910390fd5b505050565b5f73ffffffffffffffffffffffffffffffffffffffff82169050919050565b5f61023a82610211565b9050919050565b61024a81610230565b82525050565b5f6020820190506102635f830184610241565b92915050565b5f5ffd5b5f61027782610211565b9050919050565b6102878161026d565b8114610291575f5ffd5b50565b5f813590506102a28161027e565b92915050565b5f819050919050565b6102ba816102a8565b81146102c4575f5ffd5b50565b5f813590506102d5816102b1565b92915050565b5f5f604083850312156102f1576102f0610269565b5b5f6102fe85828601610294565b925050602061030f858286016102c7565b9150509250929050565b5f81905092915050565b50565b5f6103315f83610319565b915061033c82610323565b5f82019050919050565b5f61035082610326565b9150819050919050565b5f82825260208201905092915050565b7f455448207472616e73666572206661696c6564000000000000000000000000005f82015250565b5f61039e60138361035a565b91506103a98261036a565b602082019050919050565b5f6020820190508181035f8301526103cb81610392565b905091905056fea2646970667358221220eca66da931d459f832710afc914531f95bfa2ea84031d8b1f9cc2d34817555c964736f6c63430008210033","linkReferences":{}},"methodIdentifiers":{"owner()":"8da5cb5b","transferEth(address,uint256)":"e9bb84c2"},"id":19}