{"abi":[{"type":"constructor","inputs":[],"stateMutability":"nonpayable"},{"type":"fallback","stateMutability":"payable"},{"type":"receive","stateMutability":"payable"},{"type":"function","name":"approveERC20","inputs":[{"name":"token","type":"address","internalType":"address"},{"name":"spender","type":"address","internalType":"address"},{"name":"amount","type":"uint256","internalType":"uint256"}],"outputs":[],"stateMutability":"nonpayable"},{"type":"function","name":"owner","inputs":[],"outputs":[{"name":"","type":"address","internalType":"address"}],"stateMutability":"view"},{"type":"function","name":"transferERC20","inputs":[{"name":"token","type":"address","internalType":"address"},{"name":"recipient","type":"address","internalType":"address"},{"name":"amount","type":"uint256","internalType":"uint256"}],"outputs":[],"stateMutability":"nonpayable"},{"type":"function","name":"transferEth","inputs":[{"name":"recipient","type":"address","internalType":"address payable"},{"name":"amount","type":"uint256","internalType":"uint256"}],"outputs":[],"stateMutability":"nonpayable"},{"type":"error","name":"FailedTransfer","inputs":[]},{"type":"error","name":"NotAuthorized","inputs":[]}],"bytecode":{"object":"0x6080604052348015600e575f5ffd5b50335f5f6101000a81548173ffffffffffffffffffffffffffffffffffffffff021916908373ffffffffffffffffffffffffffffffffffffffff160217905550610cba8061005b5f395ff3fe608060405260043610610042575f3560e01c80638da5cb5b146100455780639db5dbe41461006f578063a8e5e4aa14610097578063e9bb84c2146100bf57610043565b5b005b348015610050575f5ffd5b506100596100e7565b604051610066919061074c565b60405180910390f35b34801561007a575f5ffd5b50610095600480360381019061009091906107c6565b61010b565b005b3480156100a2575f5ffd5b506100bd60048036038101906100b891906107c6565b61040d565b005b3480156100ca575f5ffd5b506100e560048036038101906100e09190610851565b610598565b005b5f5f9054906101000a900473ffffffffffffffffffffffffffffffffffffffff1681565b5f5f9054906101000a900473ffffffffffffffffffffffffffffffffffffffff1673ffffffffffffffffffffffffffffffffffffffff163373ffffffffffffffffffffffffffffffffffffffff1614610190576040517fea8e4eb500000000000000000000000000000000000000000000000000000000815260040160405180910390fd5b5f839050818173ffffffffffffffffffffffffffffffffffffffff166370a08231306040518263ffffffff1660e01b81526004016101ce919061074c565b602060405180830381865afa1580156101e9573d5f5f3e3d5ffd5b505050506040513d601f19601f8201168201806040525081019061020d91906108a3565b1015610245576040517fbfa871c500000000000000000000000000000000000000000000000000000000815260040160405180910390fd5b5f8211610287576040517f08c379a000000000000000000000000000000000000000000000000000000000815260040161027e90610928565b60405180910390fd5b5f5f8573ffffffffffffffffffffffffffffffffffffffff1663a9059cbb60e01b86866040516024016102bb929190610955565b604051602081830303815290604052907bffffffffffffffffffffffffffffffffffffffffffffffffffffffff19166020820180517bffffffffffffffffffffffffffffffffffffffffffffffffffffffff838183161783525050505060405161032591906109ce565b5f604051808303815f865af19150503d805f811461035e576040519150601f19603f3d011682016040523d82523d5f602084013e610363565b606091505b5091509150816103a8576040517f08c379a000000000000000000000000000000000000000000000000000000000815260040161039f90610a2e565b60405180910390fd5b5f8151111561040557808060200190518101906103c59190610a81565b610404576040517f08c379a00000000000000000000000000000000000000000000000000000000081526004016103fb90610af6565b60405180910390fd5b5b505050505050565b5f5f9054906101000a900473ffffffffffffffffffffffffffffffffffffffff1673ffffffffffffffffffffffffffffffffffffffff163373ffffffffffffffffffffffffffffffffffffffff1614610492576040517fea8e4eb500000000000000000000000000000000000000000000000000000000815260040160405180910390fd5b8273ffffffffffffffffffffffffffffffffffffffff1663095ea7b3835f6040518363ffffffff1660e01b81526004016104cd929190610b56565b6020604051808303815f875af11580156104e9573d5f5f3e3d5ffd5b505050506040513d601f19601f8201168201806040525081019061050d9190610a81565b505f811115610593578273ffffffffffffffffffffffffffffffffffffffff1663095ea7b383836040518363ffffffff1660e01b8152600401610551929190610955565b6020604051808303815f875af115801561056d573d5f5f3e3d5ffd5b505050506040513d601f19601f820116820180604052508101906105919190610a81565b505b505050565b5f5f9054906101000a900473ffffffffffffffffffffffffffffffffffffffff1673ffffffffffffffffffffffffffffffffffffffff163373ffffffffffffffffffffffffffffffffffffffff161461061d576040517fea8e4eb500000000000000000000000000000000000000000000000000000000815260040160405180910390fd5b80471015610660576040517f08c379a000000000000000000000000000000000000000000000000000000000815260040161065790610bc7565b60405180910390fd5b5f8273ffffffffffffffffffffffffffffffffffffffff168260405161068590610c08565b5f6040518083038185875af1925050503d805f81146106bf576040519150601f19603f3d011682016040523d82523d5f602084013e6106c4565b606091505b5050905080610708576040517f08c379a00000000000000000000000000000000000000000000000000000000081526004016106ff90610c66565b60405180910390fd5b505050565b5f73ffffffffffffffffffffffffffffffffffffffff82169050919050565b5f6107368261070d565b9050919050565b6107468161072c565b82525050565b5f60208201905061075f5f83018461073d565b92915050565b5f5ffd5b6107728161072c565b811461077c575f5ffd5b50565b5f8135905061078d81610769565b92915050565b5f819050919050565b6107a581610793565b81146107af575f5ffd5b50565b5f813590506107c08161079c565b92915050565b5f5f5f606084860312156107dd576107dc610765565b5b5f6107ea8682870161077f565b93505060206107fb8682870161077f565b925050604061080c868287016107b2565b9150509250925092565b5f6108208261070d565b9050919050565b61083081610816565b811461083a575f5ffd5b50565b5f8135905061084b81610827565b92915050565b5f5f6040838503121561086757610866610765565b5b5f6108748582860161083d565b9250506020610885858286016107b2565b9150509250929050565b5f8151905061089d8161079c565b92915050565b5f602082840312156108b8576108b7610765565b5b5f6108c58482850161088f565b91505092915050565b5f82825260208201905092915050565b7f416d6f756e74206d7573742062652067726561746572207468616e207a65726f5f82015250565b5f6109126020836108ce565b915061091d826108de565b602082019050919050565b5f6020820190508181035f83015261093f81610906565b9050919050565b61094f81610793565b82525050565b5f6040820190506109685f83018561073d565b6109756020830184610946565b9392505050565b5f81519050919050565b5f81905092915050565b8281835e5f83830152505050565b5f6109a88261097c565b6109b28185610986565b93506109c2818560208601610990565b80840191505092915050565b5f6109d9828461099e565b915081905092915050565b7f7472616e73666572206661696c656400000000000000000000000000000000005f82015250565b5f610a18600f836108ce565b9150610a23826109e4565b602082019050919050565b5f6020820190508181035f830152610a4581610a0c565b9050919050565b5f8115159050919050565b610a6081610a4c565b8114610a6a575f5ffd5b50565b5f81519050610a7b81610a57565b92915050565b5f60208284031215610a9657610a95610765565b5b5f610aa384828501610a6d565b91505092915050565b7f7472616e736665722072657475726e65642066616c73650000000000000000005f82015250565b5f610ae06017836108ce565b9150610aeb82610aac565b602082019050919050565b5f6020820190508181035f830152610b0d81610ad4565b9050919050565b5f819050919050565b5f819050919050565b5f610b40610b3b610b3684610b14565b610b1d565b610793565b9050919050565b610b5081610b26565b82525050565b5f604082019050610b695f83018561073d565b610b766020830184610b47565b9392505050565b7f496e73756666696369656e742062616c616e63650000000000000000000000005f82015250565b5f610bb16014836108ce565b9150610bbc82610b7d565b602082019050919050565b5f6020820190508181035f830152610bde81610ba5565b9050919050565b50565b5f610bf35f83610986565b9150610bfe82610be5565b5f82019050919050565b5f610c1282610be8565b9150819050919050565b7f455448207472616e73666572206661696c6564000000000000000000000000005f82015250565b5f610c506013836108ce565b9150610c5b82610c1c565b602082019050919050565b5f6020820190508181035f830152610c7d81610c44565b905091905056fea26469706673582212201a2b897a91ae66f38359d3cfcfb0d32a838f351c7047fd017a1e3974b790003264736f6c63430008210033","linkReferences":{}},"methodIdentifiers":{"approveERC20(address,address,uint256)":"a8e5e4aa","owner()":"8da5cb5b","transferERC20(address,address,uint256)":"9db5dbe4","transferEth(address,uint256)":"e9bb84c2"},"id":25}