{"abi":[{"type":"constructor","inputs":[{"name":"_admins","type":"address[]","internalType":"address[]"}],"stateMutability":"nonpayable"},{"type":"function","name":"APPROVAL_TH","inputs":[],"outputs":[{"name":"","type":"uint256","internalType":"uint256"}],"stateMutability":"view"},{"type":"function","name":"admins","inputs":[{"name":"","type":"uint256","internalType":"uint256"}],"outputs":[{"name":"","type":"address","internalType":"address"}],"stateMutability":"view"},{"type":"function","name":"approvalCount","inputs":[{"name":"","type":"bytes32","internalType":"bytes32"}],"outputs":[{"name":"","type":"uint256","internalType":"uint256"}],"stateMutability":"view"},{"type":"function","name":"approvals","inputs":[{"name":"","type":"bytes32","internalType":"bytes32"},{"name":"","type":"address","internalType":"address"}],"outputs":[{"name":"","type":"bool","internalType":"bool"}],"stateMutability":"view"},{"type":"function","name":"approve","inputs":[{"name":"action","type":"bytes","internalType":"bytes"}],"outputs":[],"stateMutability":"nonpayable"},{"type":"function","name":"execute","inputs":[{"name":"action","type":"bytes","internalType":"bytes"}],"outputs":[],"stateMutability":"nonpayable"},{"type":"function","name":"isAdmin","inputs":[{"name":"user","type":"address","internalType":"address"}],"outputs":[{"name":"","type":"bool","internalType":"bool"}],"stateMutability":"view"},{"type":"function","name":"transferEth","inputs":[{"name":"recipient","type":"address","internalType":"address payable"},{"name":"amount","type":"uint256","internalType":"uint256"}],"outputs":[],"stateMutability":"nonpayable"},{"type":"event","name":"Approved","inputs":[{"name":"admin","type":"address","indexed":false,"internalType":"address"},{"name":"action","type":"bytes","indexed":false,"internalType":"bytes"}],"anonymous":false},{"type":"event","name":"Executed","inputs":[{"name":"admin","type":"address","indexed":false,"internalType":"address"},{"name":"action","type":"bytes","indexed":false,"internalType":"bytes"}],"anonymous":false},{"type":"error","name":"AlreadyApproved","inputs":[]},{"type":"error","name":"BadConfig","inputs":[]},{"type":"error","name":"FailedTransfer","inputs":[]},{"type":"error","name":"NotAuthorized","inputs":[]}],"bytecode":{"object":"0x608060405234801561000f575f5ffd5b506040516113cb3803806113cb8339818101604052810190610031919061038b565b600381511461006c576040517f07cc321c00000000000000000000000000000000000000000000000000000000815260040160405180910390fd5b5f5f90505b81518110156101ba575f73ffffffffffffffffffffffffffffffffffffffff168282815181106100a4576100a36103d2565b5b602002602001015173ffffffffffffffffffffffffffffffffffffffff16036100f9576040517f07cc321c00000000000000000000000000000000000000000000000000000000815260040160405180910390fd5b5f5f90505b818110156101ac57828181518110610119576101186103d2565b5b602002602001015173ffffffffffffffffffffffffffffffffffffffff1683838151811061014a576101496103d2565b5b602002602001015173ffffffffffffffffffffffffffffffffffffffff160361019f576040517f07cc321c00000000000000000000000000000000000000000000000000000000815260040160405180910390fd5b80806001019150506100fe565b508080600101915050610071565b50805f90816101c991906105da565b505061065e565b5f604051905090565b5f5ffd5b5f5ffd5b5f5ffd5b5f601f19601f8301169050919050565b7f4e487b71000000000000000000000000000000000000000000000000000000005f52604160045260245ffd5b61022b826101e5565b810181811067ffffffffffffffff8211171561024a576102496101f5565b5b80604052505050565b5f61025c6101d0565b90506102688282610222565b919050565b5f67ffffffffffffffff821115610287576102866101f5565b5b602082029050602081019050919050565b5f5ffd5b5f73ffffffffffffffffffffffffffffffffffffffff82169050919050565b5f6102c58261029c565b9050919050565b6102d5816102bb565b81146102df575f5ffd5b50565b5f815190506102f0816102cc565b92915050565b5f6103086103038461026d565b610253565b9050808382526020820190506020840283018581111561032b5761032a610298565b5b835b81811015610354578061034088826102e2565b84526020840193505060208101905061032d565b5050509392505050565b5f82601f830112610372576103716101e1565b5b81516103828482602086016102f6565b91505092915050565b5f602082840312156103a05761039f6101d9565b5b5f82015167ffffffffffffffff8111156103bd576103bc6101dd565b5b6103c98482850161035e565b91505092915050565b7f4e487b71000000000000000000000000000000000000000000000000000000005f52603260045260245ffd5b5f81549050919050565b5f819050919050565b5f8190506001806001038301049050919050565b5f819050815f5260205f209050919050565b5f82821b905092915050565b5f600883026104737fffffffffffffffffffffffffffffffffffffffffffffffffffffffffffffffff82610438565b61047d8683610438565b95508019841693508086168417925050509392505050565b5f819050919050565b5f6104b86104b36104ae84610409565b610495565b610409565b9050919050565b5f819050919050565b6104d18361049e565b6104e56104dd826104bf565b848454610444565b825550505050565b5f5f905090565b6104fc6104ed565b6105078184846104c8565b505050565b5f5b8281101561052d576105225f8284016104f4565b60018101905061050e565b505050565b818310156105695761054382610412565b61054c84610412565b61055583610426565b8181016105648385038261050c565b505050505b505050565b68010000000000000000821115610588576105876101f5565b5b610591816103ff565b82825561059f838284610532565b505050565b5f81519050919050565b5f6105b982516102bb565b80915050919050565b5f819050602082019050919050565b5f819050919050565b6105e3826105a4565b67ffffffffffffffff8111156105fc576105fb6101f5565b5b610606818361056e565b61060f836105c2565b61061883610426565b600183045f5b81811015610655575f610630856105ae565b610639816105d1565b809250602087019650505080828501555060018101905061061e565b50505050505050565b610d608061066b5f395ff3fe608060405234801561000f575f5ffd5b5060043610610086575f3560e01c806324f6c7761161005957806324f6c776146101225780635100b381146101525780638d1ba34614610170578063e9bb84c2146101a057610086565b8063019d27291461008a57806309c5eabe146100a657806314bfd6d0146100c257806324d7806c146100f2575b5f5ffd5b6100a4600480360381019061009f91906108bc565b6101bc565b005b6100c060048036038101906100bb91906108bc565b61036f565b005b6100dc60048036038101906100d7919061093a565b6105f2565b6040516100e991906109a4565b60405180910390f35b61010c600480360381019061010791906109e7565b61062c565b6040516101199190610a2c565b60405180910390f35b61013c60048036038101906101379190610a78565b6106cc565b6040516101499190610a2c565b60405180910390f35b61015a6106f6565b6040516101679190610ac5565b60405180910390f35b61018a60048036038101906101859190610ade565b6106fb565b6040516101979190610ac5565b60405180910390f35b6101ba60048036038101906101b59190610b44565b610710565b005b6101c53361062c565b6101fb576040517fea8e4eb500000000000000000000000000000000000000000000000000000000815260040160405180910390fd5b5f828260405161020c929190610bbe565b6040518091039020905060015f8281526020019081526020015f205f3373ffffffffffffffffffffffffffffffffffffffff1673ffffffffffffffffffffffffffffffffffffffff1681526020019081526020015f205f9054906101000a900460ff16156102a6576040517f101f817a00000000000000000000000000000000000000000000000000000000815260040160405180910390fd5b6001805f8381526020019081526020015f205f3373ffffffffffffffffffffffffffffffffffffffff1673ffffffffffffffffffffffffffffffffffffffff1681526020019081526020015f205f6101000a81548160ff02191690831515021790555060025f8281526020019081526020015f205f81548092919061032a90610c03565b91905055507fc3d4a09bc3ad9dd4ad0dfdf69ea9916840787e728d223ad89fac54494c48f81b33848460405161036293929190610c96565b60405180910390a1505050565b5f8282604051610380929190610bbe565b604051809103902090506103933361062c565b80156103f5575060015f8281526020019081526020015f205f3373ffffffffffffffffffffffffffffffffffffffff1673ffffffffffffffffffffffffffffffffffffffff1681526020019081526020015f205f9054906101000a900460ff16155b156104215760025f8281526020019081526020015f205f81548092919061041b90610c03565b91905055505b6002805f8381526020019081526020015f2054101561046c576040517fea8e4eb500000000000000000000000000000000000000000000000000000000815260040160405180910390fd5b5f60025f8381526020019081526020015f20819055505f5f90505b5f8054905081101561053d575f60015f8481526020019081526020015f205f5f84815481106104b9576104b8610cc6565b5b905f5260205f20015f9054906101000a900473ffffffffffffffffffffffffffffffffffffffff1673ffffffffffffffffffffffffffffffffffffffff1673ffffffffffffffffffffffffffffffffffffffff1681526020019081526020015f205f6101000a81548160ff0219169083151502179055508080600101915050610487565b505f3073ffffffffffffffffffffffffffffffffffffffff168484604051610566929190610bbe565b5f604051808303815f865af19150503d805f811461059f576040519150601f19603f3d011682016040523d82523d5f602084013e6105a4565b606091505b50509050806105b1575f5ffd5b7f0dcf4ffb3b85ab072df6f9ed79b0382ec6c9619a98f36f4538d3b2e87fd3fd113385856040516105e493929190610c96565b60405180910390a150505050565b5f8181548110610600575f80fd5b905f5260205f20015f915054906101000a900473ffffffffffffffffffffffffffffffffffffffff1681565b5f5f5f90505b5f805490508110156106c2578273ffffffffffffffffffffffffffffffffffffffff165f828154811061066857610667610cc6565b5b905f5260205f20015f9054906101000a900473ffffffffffffffffffffffffffffffffffffffff1673ffffffffffffffffffffffffffffffffffffffff16036106b55760019150506106c7565b8080600101915050610632565b505f90505b919050565b6001602052815f5260405f20602052805f5260405f205f915091509054906101000a900460ff1681565b600281565b6002602052805f5260405f205f915090505481565b3073ffffffffffffffffffffffffffffffffffffffff163373ffffffffffffffffffffffffffffffffffffffff1614610775576040517fea8e4eb500000000000000000000000000000000000000000000000000000000815260040160405180910390fd5b804710156107af576040517fbfa871c500000000000000000000000000000000000000000000000000000000815260040160405180910390fd5b5f8273ffffffffffffffffffffffffffffffffffffffff16826040516107d490610d16565b5f6040518083038185875af1925050503d805f811461080e576040519150601f19603f3d011682016040523d82523d5f602084013e610813565b606091505b505090508061084e576040517fbfa871c500000000000000000000000000000000000000000000000000000000815260040160405180910390fd5b505050565b5f5ffd5b5f5ffd5b5f5ffd5b5f5ffd5b5f5ffd5b5f5f83601f84011261087c5761087b61085b565b5b8235905067ffffffffffffffff8111156108995761089861085f565b5b6020830191508360018202830111156108b5576108b4610863565b5b9250929050565b5f5f602083850312156108d2576108d1610853565b5b5f83013567ffffffffffffffff8111156108ef576108ee610857565b5b6108fb85828601610867565b92509250509250929050565b5f819050919050565b61091981610907565b8114610923575f5ffd5b50565b5f8135905061093481610910565b92915050565b5f6020828403121561094f5761094e610853565b5b5f61095c84828501610926565b91505092915050565b5f73ffffffffffffffffffffffffffffffffffffffff82169050919050565b5f61098e82610965565b9050919050565b61099e81610984565b82525050565b5f6020820190506109b75f830184610995565b92915050565b6109c681610984565b81146109d0575f5ffd5b50565b5f813590506109e1816109bd565b92915050565b5f602082840312156109fc576109fb610853565b5b5f610a09848285016109d3565b91505092915050565b5f8115159050919050565b610a2681610a12565b82525050565b5f602082019050610a3f5f830184610a1d565b92915050565b5f819050919050565b610a5781610a45565b8114610a61575f5ffd5b50565b5f81359050610a7281610a4e565b92915050565b5f5f60408385031215610a8e57610a8d610853565b5b5f610a9b85828601610a64565b9250506020610aac858286016109d3565b9150509250929050565b610abf81610907565b82525050565b5f602082019050610ad85f830184610ab6565b92915050565b5f60208284031215610af357610af2610853565b5b5f610b0084828501610a64565b91505092915050565b5f610b1382610965565b9050919050565b610b2381610b09565b8114610b2d575f5ffd5b50565b5f81359050610b3e81610b1a565b92915050565b5f5f60408385031215610b5a57610b59610853565b5b5f610b6785828601610b30565b9250506020610b7885828601610926565b9150509250929050565b5f81905092915050565b828183375f83830152505050565b5f610ba58385610b82565b9350610bb2838584610b8c565b82840190509392505050565b5f610bca828486610b9a565b91508190509392505050565b7f4e487b71000000000000000000000000000000000000000000000000000000005f52601160045260245ffd5b5f610c0d82610907565b91507fffffffffffffffffffffffffffffffffffffffffffffffffffffffffffffffff8203610c3f57610c3e610bd6565b5b600182019050919050565b5f82825260208201905092915050565b5f601f19601f8301169050919050565b5f610c758385610c4a565b9350610c82838584610b8c565b610c8b83610c5a565b840190509392505050565b5f604082019050610ca95f830186610995565b8181036020830152610cbc818486610c6a565b9050949350505050565b7f4e487b71000000000000000000000000000000000000000000000000000000005f52603260045260245ffd5b50565b5f610d015f83610b82565b9150610d0c82610cf3565b5f82019050919050565b5f610d2082610cf6565b915081905091905056fea2646970667358221220922ab092e491747400a11fd07ff8ca8bdf1e20c298c832de61e1f32059e6a11564736f6c63430008210033","linkReferences":{}},"methodIdentifiers":{"APPROVAL_TH()":"5100b381","admins(uint256)":"14bfd6d0","approvalCount(bytes32)":"8d1ba346","approvals(bytes32,address)":"24f6c776","approve(bytes)":"019d2729","execute(bytes)":"09c5eabe","isAdmin(address)":"24d7806c","transferEth(address,uint256)":"e9bb84c2"},"id":19}