{"abi":[{"type":"function","name":"addIOU","inputs":[{"name":"creditor","type":"address","internalType":"address"},{"name":"amount","type":"uint32","internalType":"uint32"},{"name":"path","type":"address[]","internalType":"address[]"}],"outputs":[],"stateMutability":"nonpayable"},{"type":"function","name":"ious","inputs":[{"name":"","type":"address","internalType":"address"},{"name":"","type":"address","internalType":"address"}],"outputs":[{"name":"","type":"uint32","internalType":"uint32"}],"stateMutability":"view"},{"type":"function","name":"lookup","inputs":[{"name":"debtor","type":"address","internalType":"address"},{"name":"creditor","type":"address","internalType":"address"}],"outputs":[{"name":"ret","type":"uint32","internalType":"uint32"}],"stateMutability":"view"},{"type":"event","name":"IOU_added","inputs":[{"name":"debtor","type":"address","indexed":true,"internalType":"address"},{"name":"creditor","type":"address","indexed":true,"internalType":"address"},{"name":"amount","type":"uint32","indexed":false,"internalType":"uint32"}],"anonymous":false}],"bytecode":{"object":"0x608060405234801561001057600080fd5b5061124c806100206000396000f3fe608060405234801561001057600080fd5b50600436106100415760003560e01c8063713584a6146100465780637660932814610076578063eeb567f4146100a6575b600080fd5b610060600480360381019061005b9190610bd7565b6100c2565b60405161006d9190610c36565b60405180910390f35b610090600480360381019061008b9190610bd7565b610158565b60405161009d9190610c36565b60405180910390f35b6100c060048036038101906100bb9190610ce2565b61018a565b005b60008060008473ffffffffffffffffffffffffffffffffffffffff1673ffffffffffffffffffffffffffffffffffffffff16815260200190815260200160002060008373ffffffffffffffffffffffffffffffffffffffff1673ffffffffffffffffffffffffffffffffffffffff16815260200190815260200160002060009054906101000a900463ffffffff16905092915050565b60006020528160005260406000206020528060005260406000206000915091509054906101000a900463ffffffff1681565b60008363ffffffff16116101d3576040517f08c379a00000000000000000000000000000000000000000000000000000000081526004016101ca90610db3565b60405180910390fd5b3373ffffffffffffffffffffffffffffffffffffffff168473ffffffffffffffffffffffffffffffffffffffff1603610241576040517f08c379a000000000000000000000000000000000000000000000000000000000815260040161023890610e45565b60405180910390fd5b826000803373ffffffffffffffffffffffffffffffffffffffff1673ffffffffffffffffffffffffffffffffffffffff16815260200190815260200160002060008673ffffffffffffffffffffffffffffffffffffffff1673ffffffffffffffffffffffffffffffffffffffff16815260200190815260200160002060008282829054906101000a900463ffffffff166102db9190610e94565b92506101000a81548163ffffffff021916908363ffffffff16021790555061030482828661036f565b8373ffffffffffffffffffffffffffffffffffffffff163373ffffffffffffffffffffffffffffffffffffffff167fb088be6fe9a58b5fe46059cce0a553107cf091ace59ce34a03efd5504a48c870856040516103619190610c36565b60405180910390a350505050565b6000838390501115610b6a578073ffffffffffffffffffffffffffffffffffffffff16838360008181106103a6576103a5610ecc565b5b90506020020160208101906103bb9190610efb565b73ffffffffffffffffffffffffffffffffffffffff1614610411576040517f08c379a000000000000000000000000000000000000000000000000000000000815260040161040890610f9a565b60405180910390fd5b3373ffffffffffffffffffffffffffffffffffffffff16838360018686905061043a9190610fc4565b81811061044a57610449610ecc565b5b905060200201602081019061045f9190610efb565b73ffffffffffffffffffffffffffffffffffffffff16146104b5576040517f08c379a00000000000000000000000000000000000000000000000000000000081526004016104ac90611044565b60405180910390fd5b60008060003373ffffffffffffffffffffffffffffffffffffffff1673ffffffffffffffffffffffffffffffffffffffff16815260200190815260200160002060008373ffffffffffffffffffffffffffffffffffffffff1673ffffffffffffffffffffffffffffffffffffffff16815260200190815260200160002060009054906101000a900463ffffffff16905060005b6001858590506105589190610fc4565b81101561096f57600080600087878581811061057757610576610ecc565b5b905060200201602081019061058c9190610efb565b73ffffffffffffffffffffffffffffffffffffffff1673ffffffffffffffffffffffffffffffffffffffff168152602001908152602001600020600087876001866105d79190611064565b8181106105e7576105e6610ecc565b5b90506020020160208101906105fc9190610efb565b73ffffffffffffffffffffffffffffffffffffffff1673ffffffffffffffffffffffffffffffffffffffff16815260200190815260200160002060009054906101000a900463ffffffff1663ffffffff161161068d576040517f08c379a00000000000000000000000000000000000000000000000000000000081526004016106849061110a565b60405180910390fd5b6000808686848181106106a3576106a2610ecc565b5b90506020020160208101906106b89190610efb565b73ffffffffffffffffffffffffffffffffffffffff1673ffffffffffffffffffffffffffffffffffffffff168152602001908152602001600020600086866001856107039190611064565b81811061071357610712610ecc565b5b90506020020160208101906107289190610efb565b73ffffffffffffffffffffffffffffffffffffffff1673ffffffffffffffffffffffffffffffffffffffff16815260200190815260200160002060009054906101000a900463ffffffff1663ffffffff168263ffffffff16111561086f5760008086868481811061079c5761079b610ecc565b5b90506020020160208101906107b19190610efb565b73ffffffffffffffffffffffffffffffffffffffff1673ffffffffffffffffffffffffffffffffffffffff168152602001908152602001600020600086866001856107fc9190611064565b81811061080c5761080b610ecc565b5b90506020020160208101906108219190610efb565b73ffffffffffffffffffffffffffffffffffffffff1673ffffffffffffffffffffffffffffffffffffffff16815260200190815260200160002060009054906101000a900463ffffffff1691505b600060018261087e9190611064565b90505b8585905081101561095b5785858281811061089f5761089e610ecc565b5b90506020020160208101906108b49190610efb565b73ffffffffffffffffffffffffffffffffffffffff168686848181106108dd576108dc610ecc565b5b90506020020160208101906108f29190610efb565b73ffffffffffffffffffffffffffffffffffffffff1603610948576040517f08c379a000000000000000000000000000000000000000000000000000000000815260040161093f90611176565b60405180910390fd5b808061095390611196565b915050610881565b50808061096790611196565b915050610548565b5060005b6001858590506109839190610fc4565b811015610aaf57816000808787858181106109a1576109a0610ecc565b5b90506020020160208101906109b69190610efb565b73ffffffffffffffffffffffffffffffffffffffff1673ffffffffffffffffffffffffffffffffffffffff16815260200190815260200160002060008787600186610a019190611064565b818110610a1157610a10610ecc565b5b9050602002016020810190610a269190610efb565b73ffffffffffffffffffffffffffffffffffffffff1673ffffffffffffffffffffffffffffffffffffffff16815260200190815260200160002060008282829054906101000a900463ffffffff16610a7e91906111de565b92506101000a81548163ffffffff021916908363ffffffff1602179055508080610aa790611196565b915050610973565b50806000803373ffffffffffffffffffffffffffffffffffffffff1673ffffffffffffffffffffffffffffffffffffffff16815260200190815260200160002060008473ffffffffffffffffffffffffffffffffffffffff1673ffffffffffffffffffffffffffffffffffffffff16815260200190815260200160002060008282829054906101000a900463ffffffff16610b4a91906111de565b92506101000a81548163ffffffff021916908363ffffffff160217905550505b505050565b600080fd5b600080fd5b600073ffffffffffffffffffffffffffffffffffffffff82169050919050565b6000610ba482610b79565b9050919050565b610bb481610b99565b8114610bbf57600080fd5b50565b600081359050610bd181610bab565b92915050565b60008060408385031215610bee57610bed610b6f565b5b6000610bfc85828601610bc2565b9250506020610c0d85828601610bc2565b9150509250929050565b600063ffffffff82169050919050565b610c3081610c17565b82525050565b6000602082019050610c4b6000830184610c27565b92915050565b610c5a81610c17565b8114610c6557600080fd5b50565b600081359050610c7781610c51565b92915050565b600080fd5b600080fd5b600080fd5b60008083601f840112610ca257610ca1610c7d565b5b8235905067ffffffffffffffff811115610cbf57610cbe610c82565b5b602083019150836020820283011115610cdb57610cda610c87565b5b9250929050565b60008060008060608587031215610cfc57610cfb610b6f565b5b6000610d0a87828801610bc2565b9450506020610d1b87828801610c68565b935050604085013567ffffffffffffffff811115610d3c57610d3b610b74565b5b610d4887828801610c8c565b925092505092959194509250565b600082825260208201905092915050565b7f416d6f756e74206d7573742062652067726561746572207468616e207a65726f600082015250565b6000610d9d602083610d56565b9150610da882610d67565b602082019050919050565b60006020820190508181036000830152610dcc81610d90565b9050919050565b7f4372656469746f722063616e6e6f74206265207468652073616d65206173206460008201527f6562746f72000000000000000000000000000000000000000000000000000000602082015250565b6000610e2f602583610d56565b9150610e3a82610dd3565b604082019050919050565b60006020820190508181036000830152610e5e81610e22565b9050919050565b7f4e487b7100000000000000000000000000000000000000000000000000000000600052601160045260246000fd5b6000610e9f82610c17565b9150610eaa83610c17565b9250828201905063ffffffff811115610ec657610ec5610e65565b5b92915050565b7f4e487b7100000000000000000000000000000000000000000000000000000000600052603260045260246000fd5b600060208284031215610f1157610f10610b6f565b5b6000610f1f84828501610bc2565b91505092915050565b7f50617468206d757374207374617274207769746820746865206372656469746f60008201527f7200000000000000000000000000000000000000000000000000000000000000602082015250565b6000610f84602183610d56565b9150610f8f82610f28565b604082019050919050565b60006020820190508181036000830152610fb381610f77565b9050919050565b6000819050919050565b6000610fcf82610fba565b9150610fda83610fba565b9250828203905081811115610ff257610ff1610e65565b5b92915050565b7f50617468206d75737420656e642077697468207468652073656e646572000000600082015250565b600061102e601d83610d56565b915061103982610ff8565b602082019050919050565b6000602082019050818103600083015261105d81611021565b9050919050565b600061106f82610fba565b915061107a83610fba565b925082820190508082111561109257611091610e65565b5b92915050565b7f496e76616c696420706174683a206e6f2064656274206265747765656e20746860008201527f6573652075736572730000000000000000000000000000000000000000000000602082015250565b60006110f4602983610d56565b91506110ff82611098565b604082019050919050565b60006020820190508181036000830152611123816110e7565b9050919050565b7f4475706c6963617465206164647265737320696e207061746800000000000000600082015250565b6000611160601983610d56565b915061116b8261112a565b602082019050919050565b6000602082019050818103600083015261118f81611153565b9050919050565b60006111a182610fba565b91507fffffffffffffffffffffffffffffffffffffffffffffffffffffffffffffffff82036111d3576111d2610e65565b5b600182019050919050565b60006111e982610c17565b91506111f483610c17565b9250828203905063ffffffff8111156112105761120f610e65565b5b9291505056fea264697066735822122080414dbeeda70e7dc3993e6ef10c5e97c464cea74c6d6bde140b01956c0f898964736f6c63430008110033","linkReferences":{}},"methodIdentifiers":{"addIOU(address,uint32,address[])":"eeb567f4","ious(address,address)":"76609328","lookup(address,address)":"713584a6"},"id":0}